:100000000C94BC150C94ED150C94ED150C94ED1599
:100010000C94ED150C94ED150C94ED150C94ED1558
:100020000C94ED150C94ED150C94ED150C94ED1548
:100030000C94ED150C94A9C20C94ED150C94ED15CF
:100040000C94ED150C9424420C94ED150C94ED15C4
:100050000C94ED150C94ED150C94E7310C94F7C746
:100060000C94ED150C9408AD0C94ED150C94ED1555
:100070000C94ED150C94ED150C94ED150C94ED15F8
:100080000C94ED150C94ED150C94ED150C94ED15E8
:100090000C94ED150C94ED150C94ED150C94ED15D8
:1000A0000C94ED150C94ED150C94ED150C94ED15C8
:1000B0000C94ED150C94ED150C94ED150C94ED15B8
:1000C0000C94ED150C94ED150C94ED150C94ED15A8
:1000D0000C94ED150C94ED150C94ED150C94ED1598
:1000E0000C94ED15084AD73B3BCE016E84BCBFFD96
:1000F000C12F3D6C74319ABD56833DDA3D00C77FF8
:1001000011BED9E4BB4C3E916BAAAABE0000008090
:100110003F05A84CCDB2D44EB93836A9020C50B91F
:10012000918688083CA6AAAA2ABE000000803F004B
:100130000C94A2AD0C9414190C94B8AD0C949CAD15
:100140000C94FB230C9494BE0C940BC60C948BADB6
:100150000C944A330C94CAC50C9487AD0C94F929BD
:100160000C9496300C947BC50C9461CA0C941D16AB
:100170000C94D8CB0C9406670C9487300C94A7BED3
:100180000C9425D20C94F3D60C948FAD0C9468DFAC
:100190000C9469390C945A610C94852B0C94EDC520
:1001A0000C9498AD0C9491300C94B4AD0C94B6C5ED
:1001B0000C94F4290C944FD80C94A5BE0C94AE1B4F
:1001C0000C9475170C94E11A0C94D4C50C94E4208B
:1001D0000C94EC1D0C9497BE0C947DAD0C94B2184D
:1001E0000C94EF150C9405D80C9483220C949FDF8B
:1001F0000C9454610C94032A0C9422D20C94AABE41
:100200000C943DD70C949CC50C9499620C9430725C
:100210000C94AC180C9447440C94C2AD0C94BE459D
:100220000C9467320C948F370C949DBE0C944BC089
:100230000C949ED60C9457610C9483AD0C94FFD50E
:100240000C94C42A0C94E3C50C94FE290C94DAD9BE
:100250000C9454D60C94AAAD0C94BDAD0C94A0BED5
:100260000C9415C60C94BEAD0C9468160C94C7D0B3
:100270000C94AEC50C9401C60C94A6180C94A6C59B
:100280000C9488C50C9491BE0C94B9650C9487D7D6
:100290000C94B0AD0C94FEC30C94FF2E0C949BCC2C
:1002A0000C94BBD70C9483C50C94C6270C94C0C582
:1002B0000C9492C50C94F7C50C94A6AD0C9487BE13
:1002C0000C946FCE0C94A0180C9492AD0C94EF2962
:1002D0000C948C300C9401C90C94BA650C940616DD
:1002E0000C949ABE0C940FD00C9432AD0C94026313
:1002F0004E414E494E495459494E46CDCCCC3D0A0B
:10030000D7233C17B7D13877CC2B329595E6241FED
:10031000B14F0A000020410000C84200401C4620A6
:10032000BCBE4CCA1B0E5AAEC59D74454550524FBB
:100330004D206461746173697A65206572726F72B1
:100340002E0A00290A002062797465733B206372CB
:1003500063200053657474696E67732053746F7201
:100360006564202800290A002062797465733B20A7
:1003700063726320002073746F7265642073657408
:1003800074696E677320726574726965766564203E
:100390002800202863616C63756C61746564292191
:1003A0000A0020213D2000454550524F4D20435228
:1003B00043206D69736D61746368202D2028737408
:1003C0006F7265642920002053697A653A200049DC
:1003D0006E6465783A2000204D61726C696E3D56FE
:1003E0003536290A0028454550524F4D3D004545B8
:1003F00050524F4D2076657273696F6E206D697330
:100400006D61746368200048617264636F64656441
:100410002044656661756C742053657474696E67F9
:1004200073204C6F616465640A00F4010000F401FC
:100430000000C80000008813000000007A4400009B
:100440007A440000A04100007A44F628A04276F1E8
:10045000A142619CC7444C06B74220286D6D29001B
:1004600020204D36303320002055004C0046696C6A
:10047000616D656E74206C6F61642F756E6C6F6159
:1004800064206C656E677468733A0A00204400202B
:10049000490020204D3330342050002044002049B2
:1004A0000020204D333031205000504944207365E6
:1004B0007474696E67733A0A002046002042002077
:1004C000480020204D3134352053004D6174657251
:1004D00069616C2068656174757020706172616D0E
:1004E00065746572733A0A00205A00205900202072
:1004F0004D323036205800486F6D65206F66667348
:1005000065743A0A00204500205A002059002058FE
:100510000020540020530020204D3230352051005F
:1005200020453C6D61785F655F6A65726B3E0020B7
:10053000583C6D61785F785F6A65726B3E20593C0C
:100540006D61785F795F6A65726B3E205A3C6D61C0
:10055000785F7A5F6A65726B3E00416476616E63B4
:1005600065643A20513C6D696E5F7365676D656EB9
:10057000745F74696D655F75733E20533C6D696E81
:100580005F66656564726174653E20543C6D696E9A
:100590005F74726176656C5F6665656472617465CF
:1005A0003E0020540020520020204D323034205094
:1005B00000416363656C65726174696F6E202875B4
:1005C0006E6974732F7332293A20503C7072696ED1
:1005D000745F616363656C3E20523C726574726146
:1005E00063745F616363656C3E20543C7472617632
:1005F000656C5F616363656C3E0A00204500205AAC
:100600000020590020204D3230312058004D6178B3
:10061000696D756D20416363656C65726174696FA6
:100620006E2028756E6974732F7332293A0A002080
:100630004500205A0020590020204D3230332058E8
:10064000004D6178696D756D2066656564726174D1
:1006500065732028756E6974732F73293A0A002018
:100660004500205A0020590020204D3932205800E2
:1006700053746570732070657220756E69743A0AE0
:100680000020204D3230302044300A0020204D32EE
:1006900030302044002044697361626C65640A0054
:1006A00046696C616D656E742073657474696E67FC
:1006B000733A0020204D3134392043203B20556EC1
:1006C00069747320696E2043656C736975730A00E1
:1006D0002020473231202020203B005452494747F8
:1006E00045524544006F70656E003A20007A5F6D98
:1006F000696E00795F6D696E00785F6D696E00529A
:1007000065706F7274696E6720656E6473746F7064
:10071000207374617475730A0024F4D43050C38E4E
:1007200020C2A24017828B7011127A910D816CD970
:100730000AA861E108C7586607615143061E4B5D70
:1007400005C145A7041A411104093D9803713931C7
:10075000034036DB0265339102D4305402802E1DF3
:1007600002632CEE01752AC501B028A00110278173
:10077000018F2564012B244B01E0223401AC211FA1
:10078000018D200D01801FFC00841EED00971DDFF0
:1007900000B81CD200E61BC600201BBC00641AB2C5
:1007A00000B219A8000A19A0006A189900D117917F
:1007B0000040178B00B516840031167E00B3157902
:1007C000003A157300C7146F0058146A00EE1366E0
:1007D000008813630025135E00C7125B006C12577C
:1007E0000015125400C111510070114F0021114B1E
:1007F00000D61049008D10470046104400021042F8
:1008000000C00F4000800F3E00420F3C00060F3B2F
:1008100000CB0E3800930E37005C0E3500270E34E7
:1008200000F30D3200C10D3100900D3000600D2E2F
:1008300000320D2D00050D2C00D90C2B00AE0C291B
:1008400000850C29005C0C2700350C27000E0C26B7
:1008500000E80B2400C40B2400A00B23007D0B2315
:10086000005A0B2100390B2100180B2000F80A1F39
:1008700000D90A1E00BB0A1E009D0A1D00800A1D29
:1008800000630A1C00470A1B002C0A1B00110A1AED
:1008900000F7091A00DD091900C4091900AB09198C
:1008A00000920917007B091800630917004C09160C
:1008B0000036091600200916000A091500F508156A
:1008C00000E0081400CC081400B8081400A40814B0
:1008D00000900813007D0812006B081300580812DE
:1008E00000460812003408110023081100120811F4
:1008F0000001081100F0071000E0071000D00710F9
:1009000000C0071000B0070F00A107100091070EEC
:100910000083070F0074070F0065070E0057070ECE
:100920000049070E003B070D002E070E0020070DA3
:100930000013070D0006070D00F9060C00ED060D6B
:1009400000E0060C00D4060C00C8060C00BC060C27
:1009500000B0060C00A4060B0099060C008D060BD7
:100960000082060B0077060B006C060B0061060A7E
:100970000057060B004C060A0042060A0038060A19
:10098000002E060A0024060A001A060A00100609AC
:100990000007060A00FD050900F4050900EB05093A
:1009A00000E2050900D9050900D0050900C70509BD
:1009B00000BE050900B5050800AD050800A505093C
:1009C000009C050800940508008C050800840508B3
:1009D000007C050800740508006C05070065050823
:1009E000005D050700560508004E0507004705078E
:1009F000004005080038050700310507002A0507F3
:100A000000230507001C050600160507000F050753
:100A1000000805060002050700FB040600F50407B0
:100A200000EE040600E8040600E2040700DB04060A
:100A300000D5040600CF040600C9040600C304065E
:100A400000BD040600B7040600B1040500AC0406AE
:100A500000A6040600A00405009B040600950405FA
:100A600000900406008A0405008504050080040641
:100A7000007A04050075040500700405006B040588
:100A80000066040500610405005C040500570405C8
:100A900000520405004D0405004804050043040508
:100AA000003E0404003A0405003504050030040447
:100AB000002C04050027040400230405001E040480
:100AC000001A04040016040500110404000D0404B7
:100AD00000090405000404040000040400FC0304ED
:100AE00000F8030400F4030400F0030400EC030422
:100AF00000E8030400E4030400E0030400DC030452
:100B000000D8030400D4030400D0030400CC030481
:100B100000C8030300C503030024F404D9201BC448
:100B20000C5C0E9804C4095F0265077101F405F9B5
:100B300000FB04B30048048700C103690058035553
:100B40000003034500BE023A008402310053022A2A
:100B5000002902250004022000E4011C00C801193C
:100B600000AF0117009801140084011300710110F7
:100B7000006101100051010E0043010D0036010B10
:100B8000002B010B0020010B00150109000C0109CD
:100B90000003010800FB000800F3000800EB000759
:100BA00000E4000600DE000600D8000600D20006C1
:100BB00000CC000500C7000500C2000500BD000410
:100BC00000B9000400B5000400B1000400AD000449
:100BD00000A9000400A5000300A20003009F000478
:100BE000009B00030098000300950002009300039F
:100BF00000900003008D0002008B000300880002BB
:100C0000008600020084000300810002007F0002D1
:100C1000007D0002007B00020079000200770001E5
:100C200000760002007400020072000100710002F0
:100C3000006F0002006D0001006C0002006A0001FC
:100C40000069000200670001006600010065000104
:100C50000064000200620001006100010060000108
:100C6000005F0002005D0001005C0001005B00010C
:100C7000005A00010059000100580001005700010E
:100C8000005600010055000100540001005300000F
:100C9000005300010052000100510001005000010A
:100CA000004F0001004E0000004E0001004D000109
:100CB000004C0001004B0000004B0001004A000105
:100CC0000049000100480000004800010047000101
:100CD00000460000004600010045000000450001FC
:100CE00000440001004300000043000100420000F6
:100CF00000420001004100000041000100400001ED
:100D0000003F0000003F0001003E0000003E0001E7
:100D1000003D0000003D0001003C0000003C0000E0
:100D2000003C0001003B0000003B0001003A0000D5
:100D3000003A0001003900000039000100380000CD
:100D400000380000003800010037000000370001C3
:100D500000360000003600000036000100350000BB
:100D600000350000003500010034000000340000B0
:100D700000340001003300000033000000330001A4
:100D8000003200000032000000320001003100009B
:100D90000031000000310001003000000030000090
:100DA00000300001002F0000002F0000002F000085
:100DB000002F0001002E0000002E0000002E000178
:100DC000002D0000002D0000002D0000002D00016E
:100DD000002C0000002C0000002C0000002C000162
:100DE000002B0000002B0000002B0000002B000156
:100DF000002A0000002A0000002A0000002A00014A
:100E0000002900000029000000290000002900003E
:100E10000029000100280000002800000028000030
:100E20000028000000280001002700000027000023
:100E30000027000000270000002700010026000016
:100E40000026000000260000002600000026000109
:100E500000250000002500000025000000250000FE
:100E600000250000002500010024000000240000EF
:100E700000240000002400000024000100230000E2
:100E800000230000002300000023000000230000D6
:100E900000230000002300010022000000220000C7
:100EA00000220000002200000022000000220001B9
:100EB00000210000002100000021000000210000AE
:100EC000002100000021000000210001002000009E
:100ED0000020000000200000002000000020000092
:100EE000002000000020000000200001001F000082
:100EF000001F0000001F0000001F0000001F000076
:100F0000001F0000001F0001001E0000001E000066
:100F1000001E0000001E000000043700001E290013
:100F200000511B00005810000010090000CC040004
:100F30000078020000410100006265640A002C2074
:100F400073797374656D2073746F7070656421209C
:100F50004865617465725F49443A200042656420C7
:100F600068656174696E67206661696C65640048D4
:100F7000656174696E67206661696C6564004531FE
:100F8000204171756563696D656E746F2066616C73
:100F9000686F750048656174696E67206661696C89
:100FA00065640070012C0190012701B0012201C08D
:100FB000011D01F00118011002130130020E016041
:100FC00002090190020401C002FF000003FA004080
:100FD00003F5008003F000D003EB002004E600706E
:100FE00004E100E004DC004005D700C005D2004069
:100FF00006CD00D006C8008007C3003008BE00F050
:1010000008B900C009B400B00AAF00B00BAA00D004
:101010000CA500000EA000500F9B00C010960050C1
:1010200012910000148C00C0158700B0178200B028
:10103000197D00D01B7800001E730040206E0090C8
:10104000226900F024640040275F0090295A00E0E4
:101050002B5500102E500020304B0010324600E07F
:1010600033410090353C001037370070383200A013
:10107000392D00B03A2800A03B2300603C1E001030
:101080003D1900903D1400103E0F00703E0A00C054
:101090003E0500003F0000403FFBFF803FF6FFC0E1
:1010A0003FF1FF45312045534341504520544552BF
:1010B0004D49434F0042454420544845524D414C10
:1010C0002052554E4157415900546865726D616C0C
:1010D0002052756E61776179004531204572726FDB
:1010E0003A54656D70204D6178696D61004572728A
:1010F0006F3A54656D70204D657361204D617800C5
:101100004D415854454D502074726967676572654A
:1011100064004531204572726F3A54656D70204D00
:10112000696E696D61004572726F3A54656D702029
:101130004D657361204D696E004D494E54454D50CB
:1011400020747269676765726564004D3834205891
:101150002059205A204500202F002042403A0020EC
:10116000403A0025753A2530327500253032753AFF
:1011700025303275002D2D2D0053440020202020D5
:101180002020002020202000486F6D6520507269CB
:101190006E7465722070726F6E746F2E005072697B
:1011A0006E74696E672E2E2E005072696E742070F8
:1011B000617573656400496D7072657373616F204A
:1011C00041626F727461646100496D7072696D692A
:1011D0007220646F20534400506172617220696D07
:1011E0007072657373616F00526573756D697220FB
:1011F000696D7072657373616F0053656D20636113
:101200007274616F2053440050617573617220697C
:101210006D7072657373616F00436F6E74726F6C83
:101220006500507265706172617200416A75737415
:10123000617200496E666F726D61636F6573005015
:10124000617373696E686F205A0054726F636172C4
:101250002046696C616D656E746F0054726F6361D6
:10126000722046696C616D656E746F004D3630306A
:101270002042300050617373696E686F205A0056C7
:10128000617A616F0056617A616F0056656C2E203D
:1012900056656E746F696E68610056656C2E2056D7
:1012A000656E746F696E6861004D657361004D65B0
:1012B000736100426F63616C00426F63616C005642
:1012C000656C6F6369646164650056656C6F636922
:1012D00064616465004D656E75207072696E636946
:1012E00070616C005072652D61712E457874727555
:1012F000736F7261005072652D61712E4D6573615F
:1013000020504C41005072652D61717565636572A6
:1013100020504C41005072657061726172005072D1
:10132000652D61712E4D65736120414253005072ED
:10133000652D61712E4578747275736F72610050FE
:1013400072652D617175656365722041425300506D
:1013500072657061726172004D343238004D383000
:10136000004465736C69676172004D3831005072DA
:10137000652D61717565636572204142530050723D
:10138000652D6171756563657220504C4100457330
:1013900066726961720054726F6361722046696C93
:1013A000616D656E746F0054726F6361722046697F
:1013B0006C616D656E746F004D36303020423000C8
:1013C0004465736162692E206D6F746F726573007E
:1013D0004D383400436F6D70656E736172206F72AB
:1013E0006967656D004C69676172004972206E61C2
:1013F000206F726967656D2058595A00473238006E
:101400004D6F766572206569786F004D656E752049
:101410007072696E636970616C004D6F76657220E1
:1014200058004D6F7665722059004D6F76657220B9
:101430005A004D6F766572204578747275736F72BD
:10144000004D6F76657220302E316D6D004D6F76D8
:10145000657220316D6D004D6F7665722031306D93
:101460006D004D6F766572206569786F004D6F76FF
:101470006572204578747275736F72004D6F766572
:1014800072205A004D6F7665722059004D6F766557
:10149000722058004D6F76657220457874727573AE
:1014A0006F72004D6F766572205A004D6F766572CF
:1014B0002059004D6F76657220580050726570613A
:1014C00072617200496E69636961722045455052CC
:1014D0004F4D00436F6E74726F6C6500526573748C
:1014E0006175726F2073656775726F004C6572204D
:1014F000436F6E66696775726163616F00496E69FB
:101500006369617220454550524F4D0053616C76BE
:10151000617220436F6E66696775726163616F0007
:1015200046696C616D656E746F004D6F76696D65AF
:101530006E746F0054656D706572617475726100D0
:101540004D656E75207072696E636970616C0041E3
:101550006A75737461722041425300416A757374F5
:10156000617220504C41005049442D440050494480
:101570002D44005049442D49005049442D49005004
:1015800049442D50005049442D50000220466174BA
:101590006F720002204661746F720002204D617804
:1015A0000002204D61780002204D696E0002204D3E
:1015B000696E004465736C696761646F004C6967AC
:1015C00061646F200054656D702E204175746F6DDD
:1015D00061746963610056656C2E2056656E746F88
:1015E000696E68610056656C2E2056656E746F6971
:1015F0006E6861004D657361004D65736100426FF7
:1016000063616C00426F63616C00436F6E74726F54
:101610006C650053616C76617220436F6E6669671A
:1016200075726163616F004D657361004D65736133
:1016300000426F63616C00426F63616C0056656CC1
:101640002E2056656E746F696E68610056656C2E4B
:101650002056656E746F696E68610054656D7065C3
:1016600072617475726100564465736C6F63616D6D
:10167000656E746F206D696E00564465736C6F63A0
:10168000616D656E746F206D696E00566D696E00D8
:10169000566D696E00566D6178204500566D617813
:1016A000204500566D6178205A00566D6178205AA9
:1016B00000566D6178205900566D617820590056AA
:1016C0006D6178205800566D61782058004D6F7616
:1016D000696D656E746F00416D6178204500416DE4
:1016E0006178204500416D6178205A00416D617834
:1016F000205A00416D6178205900416D6178205970
:1017000000416D6178205800416D61782058004D8E
:101710006F76696D656E746F2041004D6F76696DEF
:10172000656E746F20410052657472616972204168
:1017300000526574726169722041004163656C2ECC
:10174000004163656C2E004D6F76696D656E746F38
:10175000006A6F676F205645006A6F676F205645B5
:10176000006A6F676F20565A006A6F676F20565A7B
:10177000006A6F676F205659006A6F676F2056596D
:10178000006A6F676F205658006A6F676F2056585F
:10179000004D6F76696D656E746F00452F6D6D003D
:1017A000452F6D6D00506173736F205A2F6D6D0062
:1017B000506173736F205A2F6D6D00506173736F9A
:1017C00020592F6D6D00506173736F20592F6D6D0F
:1017D00000506173736F20582F6D6D0050617373EB
:1017E0006F20582F6D6D004D6F76696D656E746F4B
:1017F00000506173736F2F6D6D004A6F676F00410A
:101800006363656C65726174696F6E0056656C6FB9
:1018100063696461646500436F6E74726F6C650028
:101820004C6F6164206D6D004C6F6164206D6D00C4
:10183000556E6C6F6164206D6D00556E6C6F6164E8
:10184000206D6D004469C3A26D6574726F20466996
:101850006C2E004469C3A26D6574726F2046696C7A
:101860002E004465736C696761646F004C69676141
:10187000646F2000457874727573616F20656D2008
:101880006D6D3300436F6E74726F6C650043616EF3
:101890006E6F7420656E7465722073756264697210
:1018A0003A2000052E2E004D656E75207072696E0F
:1018B000636970616C00434F4D4D554E494341542F
:1018C000494F4E0044525952554E004552524F52C4
:1018D0005300494E464F004543484F00656E7175B1
:1018E000657565696E672022005041524144412070
:1018F000444520454D455247454E434941005041DE
:10190000524F552E20005072696E746572207374A8
:101910006F707065642064756520746F20657272E5
:101920006F72732E20466978207468652065727224
:101930006F7220616E6420757365204D39393920CE
:10194000746F20726573746172742E202854656DF3
:101950007065726174757265206973207265736554
:10196000742E20536574206974206166746572203A
:1019700072657374617274696E67290A004E6F2014
:10198000436865636B73756D2077697468206C6953
:101990006E65206E756D6265722C204C61737420CB
:1019A0004C696E653A20004E6F20436865636B7327
:1019B000756D2077697468206C696E65206E756D31
:1019C0006265722C204C617374204C696E653A20FC
:1019D00000636865636B73756D206D69736D617409
:1019E00063682C204C617374204C696E653A20004A
:1019F0004C696E65204E756D626572206973206E4C
:101A00006F74204C617374204C696E65204E756D47
:101A10006265722B312C204C617374204C696E65A9
:101A20003A20004D313130004D33310053442072A3
:101A3000656164206572726F720A00446F6E652082
:101A40007072696E74696E672066696C650A002041
:101A5000496E76616C69642065787472756465722C
:101A60002000000000000000000000000000000056
:101A70005243000052430000964346616C68612067
:101A8000616F2069722061206F726967656D005017
:101A9000726F7465637465642050696E0A00205724
:101AA0003A004520436F6F6C696E672E2E2E0045FD
:101AB000204171756563656E646F2E2E2E00205770
:101AC0003A0042656420636F6F6C696E672E2E2E3C
:101AD000004171756563656E646F20626173652E88
:101AE0002E2E00205A3A0020593A0020436F756E7E
:101AF0007420583A0020453A00205A3A0020593ABA
:101B000000583A003A004361703A00205A002059C8
:101B100000580020204D61783A2000205A002059BA
:101B200000580020204D696E3A20004C69676164BE
:101B30006F20004465736C696761646F00536F6662
:101B40007420656E6473746F70733A20004B642068
:101B50000023646566696E652044454641554C54D2
:101B60005F004B69200023646566696E652044450B
:101B70004641554C545F004B7020002364656669F4
:101B80006E652044454641554C545F005049442001
:101B90004175746F74756E652066696E69736865EA
:101BA00064212050757420746865206C6173742002
:101BB0004B702C204B6920616E64204B6420636F56
:101BC0006E7374616E74732066726F6D2062656CE3
:101BD0006F7720696E746F20436F6E6669677572E8
:101BE0006174696F6E2E680A005049442041757413
:101BF0006F74756E65206661696C65642120746917
:101C00006D656F75740A0045312045534341504559
:101C1000205445524D49434F0042454420544845C5
:101C2000524D414C2052554E415741590054686520
:101C3000726D616C2052756E61776179004531205B
:101C40004171756563696D656E746F2066616C685E
:101C50006F75004265642068656174696E6720660F
:101C600061696C65640048656174696E67206661CE
:101C7000696C656400504944204175746F74756ED9
:101C800065206661696C6564212054656D706572BC
:101C9000617475726520746F6F20686967680A00E7
:101CA000204B643A2000204B693A2000204B703AC8
:101CB00020000A20436C61737369632050494420FB
:101CC0000A002054753A2000204B753A2000206D00
:101CD00061783A2000206D696E3A200020643A2035
:101CE0000020626961733A200050494420417574B4
:101CF0006F74756E652073746172740A0050494484
:101D0000204175746F74756E65206661696C6564D9
:101D1000212054656D706572617475726520746FF1
:101D20006F20686967680A00504944204175746FE4
:101D300074756E65206661696C656421204261641A
:101D4000206578747275646572206E756D62657257
:101D50000A004D3630303A20546F6F20636F6C6448
:101D600000486F74656E6420746F6F20636F6C64DD
:101D70000A00496E736572742066696C616D656EE8
:101D80007420616E64207072657373206275747460
:101D90006F6E0A00507265737320627574746F6E93
:101DA00020746F2068656174206E6F7A7A6C650AA2
:101DB00000496E736572742066696C616D656E743E
:101DC00020616E6420707265737320627574746F25
:101DD0006E20286F72204D313038290A00496E7309
:101DE0006572742066696C616D656E7420616E64E5
:101DF00020707265737320627574746F6E20286F23
:101E000072204D313038290A0047322F4733206283
:101E1000616420706172616D65746572730A005A45
:101E20007A5A7A5A7A2E2E2E00436C697175652083
:101E300070617261207265746F6D61720053656DBF
:101E4000206D6F76696D656E746F00456E642066F7
:101E5000696C65206C6973740A00426567696E205D
:101E600066696C65206C6973740A00286E6F206661
:101E7000696C65290043757272656E742066696CC1
:101E8000653A20005344207072696E74696E672051
:101E90006279746520004E6F74205344207072691B
:101EA0006E74696E670A0044656C6574696F6E20B4
:101EB0006661696C65642C2046696C653A20004651
:101EC000696C652064656C657465643A00256973A6
:101ED0000025696D20256973002569682025696DD5
:101EE0002025697300256964202569682025696DAE
:101EF0002025697300256979202569642025696892
:101F00002025696D20256973005072696E742074F4
:101F1000696D653A20006F666600D718D218CB1835
:101F2000C418B61844454255473A005041524144FE
:101F30004120444520454D455247454E43494100C7
:101F40004D3131332053006F6B0050533A310A004A
:101F500050533A300A00486F6D65205072696E74B4
:101F60006572204465736C696761646F2E002C2074
:101F7000002C2000544845524D414C5F50524F5464
:101F8000454354494F4E004155544F5245504F52CE
:101F9000545F53445F53544154555300454D45528B
:101FA00047454E43595F50415253455200434153B8
:101FB000455F4C494748545F4252494748544E4553
:101FC000535300544F47474C455F4C49474854537F
:101FD00000534F4654574152455F504F57455200AA
:101FE0004255494C445F50455243454E54004C4580
:101FF00056454C494E475F44415441005A5F505248
:102000004F4245004155544F4C4556454C005052A7
:10201000494E545F4A4F420050524F475245535326
:10202000004155544F5245504F52545F54454D5006
:1020300000564F4C554D455452494300454550526A
:102040004F4D0053455249414C5F584F4E5F584FDA
:102050004646004649524D574152455F4E414D4517
:102060003A4D61726C696E20312E312E392028472D
:1020700069746875622920534F555243455F434F39
:1020800044455F55524C3A68747470733A2F2F6709
:1020900069746875622E636F6D2F4D61726C696E25
:1020A0004669726D776172652F4D61726C696E2041
:1020B00050524F544F434F4C5F56455253494F4E29
:1020C0003A312E30204D414348494E455F545950D6
:1020D000453A486F6D65205072696E74657220458F
:1020E000585452554445525F434F554E543A31204F
:1020F000555549443A63656465326132662D343121
:1021000061322D343734382D396231322D63353513
:102110006336326633363766660A002F2F20004D4D
:1021200031343520533C696E6465783E206F757498
:10213000206F662072616E67652028302D31290A74
:1021400000205400205200416363656C6572617425
:10215000696F6E3A205000416C7465726163616F03
:10216000206665697461004572723A20546F6F2071
:102170006661722100546F6F206661722066726F13
:102180006D207265666572656E636520706F696E3D
:10219000740A0020466C6F773A200000013637261B
:1021A00003FFFFFF353C3D380EFFFFFF312E303E71
:1021B00012FFFFFFFF28FF0C0809FFFFFF1A1C1882
:1021C000FFFF2A08440AFF43496E76616C69642068
:1021D00065787472756465720A0020643A0020693B
:1021E0003A0020703A0043290A0061626C6564205D
:1021F000286D696E2074656D702000436F6C6420DB
:10220000657874727564657320617265200020645E
:102210003A0020693A0020703A004E6F20636173E3
:1022200065206C696768740A00454550524F4D201F
:102230004F4B0A0041637469766520457874727566
:102240006465723A2000496E76616C696420657835
:102250007472756465720A00526573656E643A2023
:10226000006F6B0020746F6F206C6F6E6720657855
:1022700074727573696F6E2070726576656E7465C1
:10228000640A0020636F6C642065787472757369EA
:102290006F6E2070726576656E7465640A00627593
:1022A00073793A2070617573656420666F72206976
:1022B0006E7075740A00627573793A207061757377
:1022C000656420666F7220757365720A00627573AB
:1022D000793A2070726F63657373696E670A005094
:1022E000415241444120444520454D455247454EC9
:1022F000434941004B494C4C206361757365642030
:102300006279204B494C4C20627574746F6E2F704B
:10231000696E0A0050415241444120444520454DD8
:10232000455247454E434941004B494C4C2063615F
:102330007573656420627920746F6F206D756368B2
:1023400020696E6163746976652074696D65202DFE
:102350002063757272656E7420636F6D6D616E645B
:102360003A2000506C656173652072657365740076
:102370005052494E5445522048414C544544005017
:1023800072696E7465722068616C7465642E206B6E
:10239000696C6C28292063616C6C6564210A0000FB
:1023A00000000000000000000000000000484200A3
:1023B00000484200008040000000005761726E69D2
:1023C0006E673A20486F6D696E672042756D7020A8
:1023D00044697669736F72203C20310A000202045E
:1023E0000000A0400000A040000000400000524358
:1023F0000000524300009643FFFFFF7C3C3E5E2BF3
:102400003D3F2F5B5D3B2C2A225C004572726F7250
:102410002077726974696E6720746F204545505249
:102420004F4D210A004D37303220542564004D367F
:10243000303020423020542564004D373032203B6C
:102440002564004D373031205425640054726F6389
:1024500061722046696C616D656E746F00507265C3
:102460002D6171756563657220414253005072653C
:102470002D6171756563657220504C410054726F17
:102480006361722046696C616D656E746F005052B5
:10249000494E542050415553454400554E4C4F41F0
:1024A000442046494C414D454E54004C4F41442038
:1024B00046494C414D454E54005075726765206D3C
:1024C0006F726500436F6E74696E75617220496D3D
:1024D0007072657373616F00436F6E6669672E205B
:1024E0006465205265746F6D616461002020426FE5
:1024F00063616C3A200074726F63612064652046EA
:10250000696C616D656E746F00696E6963696F20D7
:102510006461004573706572616E646F206F0020A6
:1025200020426F63616C3A200072656D6F63616F6A
:102530002064652066696C616D656E746F0045731B
:10254000706572616E646F002020426F63616C3A47
:102550002000416775617264652E2E2E00417175F1
:102560006563656E646F206F20426F63616C00204D
:1025700020426F63616C3A2000702F2041717565B5
:10258000636572206F20426F63616C0050726573E7
:1025900073696F6E65206F20626F74616F00202019
:1025A000426F63616C3A20007061726120636F6EEC
:1025B00074696E7561722E2E2E0070726573736968
:1025C0006F6E65206F20626F74616F00436F6C6F78
:1025D0007175652046696C616D656E746F002020B1
:1025E000426F63616C3A200066696C616D656E7460
:1025F0006F004573706572616E646F002020426FDA
:1026000063616C3A200066696C616D656E74207060
:1026100075726765005761697420666F7200636F39
:102620006E74696E756172004573706572616E6477
:102630006F20696D7072657373616F0043617274AE
:10264000616F2072656D6F7669646F0043617274AB
:10265000616F20696E73657269646F00001C1F11E1
:10266000111F00000006191803130C00040E1F04AC
:102670001C000000000E1315110E00001C1018178E
:1026800005060500040A0A0A0A11110E0C12120CA2
:1026900000000000001F1511151F000000002100A0
:1026A000240027002A002D00300033000101000023
:1026B000040107010A0100002200250028002B0068
:1026C0002E003100340002010000050108010B0159
:1026D000000020002300260029002C002F003200DB
:1026E00000010000030106010901050505050705B4
:1026F00008080808020202020A0A0808040404047E
:1027000001010101010101010303030303030303A9
:10271000040707070C0C0C0C0C0C0C0C0202020238
:1027200006060606060606060B0B0B0B0B0B0B0B21
:1027300001021020200808102040102040800201D3
:1027400002010804020101020408102040808040B8
:1027500020100804020180040201804020100804B7
:102760000201080402010102040810204080010255
:1027700004081020408000000A0B02090C0D0E080E
:10278000070304010000000000000000000000003A
:102790000000000000000000000000000000000039
:1027A00000001211100000000000000000000000F6
:1027B0000000000000000000000000000200000017
:1027C00000010204040000001C1C0C0404040201AB
:1027D000000000000004081000000000002D2D2D56
:1027E0002D2D2D007C4D61726C696E7C002D2D2D80
:1027F0002D2D2D00687474703A2F2F6D61726C69E5
:102800006E66772E6F726700687474703A2F2F6D42
:1028100061726C696E66772E6F72670020312E319F
:102820002E39002020506C616E6E657242756666AE
:10283000657242797465733A20002046726565209E
:102840004D656D6F72793A2000436F6D70696C65EC
:10285000643A204D617220203920323032310A0032
:10286000207C20417574686F723A2028526D532085
:102870005072696E7465722C207631290A003230EC
:1028800031382D30382D303100204C617374205593
:102890007064617465643A2000312E312E390A006B
:1028A0004D61726C696E0020536F6674776172655A
:1028B0002052657365740A00205761746368646F01
:1028C000672052657365740A002042726F776E202C
:1028D0006F75742052657365740A002045787465BD
:1028E000726E616C2052657365740A00506F776573
:1028F0007255700A0073746172740A006175746FA6
:1029000025692E67006572726F722077726974692B
:102910006E6720746F2066696C650A0046696E6197
:10292000697320256320256320256320256300200B
:102930005A3A0020593A0020583A00656E64737480
:102940006F7073206869743A2000446F6E6520735D
:102950006176696E672066696C652E0A004D3239B2
:10296000004D3234004D323320257300556E6B6EAE
:102970006F776E20636F6D6D616E643A2022004840
:102980006F74656E6420746F6F20636F6C640A00EF
:10299000486F6D6520257325732573205072696D0E
:1029A0006569726F00205072696D6569726F0A0007
:1029B0005A0059005800486F6D65200020746F6FF1
:1029C000206C6F6E6720657874727573696F6E2006
:1029D00070726576656E7465640A0020636F6C645E
:1029E00020657874727573696F6E20707265766594
:1029F0006E7465640A0053442063617264206F6BD7
:102A00000A006F70656E526F6F74206661696C6545
:102A1000640A00766F6C756D652E696E6974206648
:102A200061696C65640A00534420696E69742066AC
:102A300061696C0A0057726974696E6720746F204F
:102A400066696C653A20006F70656E206661696C1E
:102A500065642C2046696C653A20006F70656E20B5
:102A60006661696C65642C2046696C653A20004695
:102A7000696C652073656C65637465640A00205336
:102A8000697A653A200046696C65206F70656E65ED
:102A9000643A20002066696C653A2000646F696EB4
:102AA00067006672657368004E6F772000454E447C
:102AB00020535542524F5554494E450A002220702A
:102AC0006F73002220706172656E743A2200535554
:102AD00042524F5554494E452043414C4C2074615D
:102AE000726765743A220050415241444120444586
:102AF00020454D455247454E43494100747279691E
:102B00006E6720746F2063616C6C207375622D6733
:102B1000636F64652066696C6573207769746820EB
:102B2000746F6F206D616E79206C6576656C732EA5
:102B3000204D4158206C6576656C2069733A0045DC
:102B400072726F723A006F70656E206661696C65B3
:102B5000642C2046696C653A200043616E6E6F7488
:102B6000206F70656E207375626469722000656302
:102B7000686F3A009FDF68DF11241FBECFEFD1E2FC
:102B8000DEBFCDBF00E00CBF13E0A0E0B2E0E2ED9D
:102B9000F3EE01E00BBF02C007900D92A232B10725
:102BA000D9F722E1A2E2B3E001C01D92AB38B2072F
:102BB000E1F715E1CBEBD5E100E006C02197010973
:102BC000802FFE010E9448F1CA3BD10780E0080730
:102BD000A9F70E946AE00C94D7F10C9400002CEA4B
:102BE00035EC47E25EE360916F0470917004809170
:102BF0007104909172040E94EEEE609365037093ED
:102C00006603809367039093680308952CEA35EC7C
:102C100047E25EE3609173047091740480917504DF
:102C2000909176040E942AEA6093690370936A0384
:102C300080936B0390936C03089560910D027091E3
:102C40000E02072E000C880B990B0E94CBE92AE09C
:102C500037ED43E25CE30E942AEA2091450330917C
:102C6000460340914703509148030E942AEA60932B
:102C70003F02709340028093410290934202089574
:102C800090916F00292F227091FF05C090916F00E5
:102C90009D7F90936F0034E0839FC0011124FC015D
:102CA000E551F84F40815181628173818F519C4F72
:102CB000FC01408351836283738381E0809324030A
:102CC000222329F080916F00826080936F00089525
:102CD000CF92DF92EF92FF9280919603882309F4BE
:102CE00057C0C0909203D0909303E0909403F0906B
:102CF000950320E030E0A901C701B6010E94C4E9B4
:102D0000882309F445C020E030E040E05FE3C701DC
:102D1000B6010E942AEA9B01AC010E942AEA2BED2F
:102D20003FE049E450E40E942AEA9B01AC0160E0E4
:102D300070E080E89FE30E94EEEE6B017C01C092A0
:102D40004503D0924603E0924703F0924803609116
:102D50000D0270910E02072E000C880B990B0E9439
:102D6000CBE92AE037ED43E25CE30E942AEAA701BF
:102D700096010E942AEA60933F027093400280937A
:102D8000410290934202FF90EF90DF90CF90089520
:102D9000C12CD12C80E8E82E8FE3F82ED0CFCF9332
:102DA000DF938091970365994DC08160809397036D
:102DB000909103018091970391FD46C082608093BA
:102DC0009703809197034B9941C084608093970348
:102DD000C091D203C0FF10C08091980380FF0CC047
:102DE0008091970380FF08C08091400681608093A6
:102DF000400680E00E944016C1FF10C080919803F9
:102E000081FF0CC08091970381FF08C0809140062C
:102E100082608093400681E00E944016C2FF18C085
:102E20008091980382FF14C08091970382FF10C0A5
:102E30008091400684608093400682E0DF91CF91CC
:102E40000C9440168E7FB2CF8D7FB9CF8B7FBECFD3
:102E5000DF91CF9108951F93CF93DF93182FEB014C
:102E6000FE018491219681110AC0CAEED6E0FE01CE
:102E700084912196882331F00E947079F8CF0E94C6
:102E80007079EECFC5EED6E0112311F0CBEDD6E090
:102E9000FE0184912196882319F00E947079F8CF61
:102EA0008AE0DF91CF911F910C947079CF93DF93DB
:102EB00080399240A1F0CFE3DBE2FE0184912196BC
:102EC00081110AC0CBE2D3E0FE01849121968823D0
:102ED00051F00E947079F8CF0E947079EECF80E0B7
:102EE000DF91CF91089581E0FBCF0C9459C6CF922A
:102EF000DF92EF92FF92CF93C82F0E944DC66B01D5
:102F00007C0124EA30E74DE75FE36091690470914A
:102F10006A0480916B0490916C040E94C4E987FD5F
:102F200018C08AEF90E0A0E0B0E08C0D9D1DAE1DB2
:102F3000BF1D8093020690930306A0930406B093EE
:102F40000506C0933302CF91FF90EF90DF90CF90B2
:102F5000089580E090E0DC01E8CFCF93DF9300D0CC
:102F60001F92CDB7DEB7882349F00E9462D10F903F
:102F70000F900F900F90DF91CF91089588EB91E023
:102F80009C838B8384E190E09A838983BE016D5F8B
:102F90007F4FCE0101960E945FB0E9CF80913E0342
:102FA0008230B1F09091C20F992359F08091D30FE4
:102FB000811104C086EC9FE00C9464AF83ED9FE028
:102FC000FBCF813041F088E891E16FEF0C94A1D202
:102FD00089EA91E1FACF8DE991E1F7CF382F10928C
:102FE0000A068091C3079091C407A091C507B091CC
:102FF000C60781309048A105B10540F01092C30783
:103000001092C4071092C5071092C6072091C307FB
:103010002093FF051092FE05809100061816ECF42F
:10302000082E000C990B831B9109022E000C330B08
:103030002817390794F097FF02C090E080E0809352
:10304000FF05092E000CAA0BBB0B8093C3079093BE
:10305000C407A093C507B093C6078091FF056623F8
:10306000A9F090910106891714F48093010620912C
:103070000106022E000C330B2D5F3F4F482F082E08
:10308000000C550B241735071CF483508093010660
:103090000895809163048630D8F496E0899FF0010A
:1030A0001124E15CFB4F20913C0230913D023183C1
:1030B00020834091C3075091C4076091C507709168
:1030C000C60742835383648375838F5F8093630451
:1030D000089520913C0230913D0228173907D9F01C
:1030E00090933D0280933C024093C3075093C407E2
:1030F0006093C5077093C6078A54934321F41092D6
:10310000E607109263040E94F6C382E080934502B2
:1031100081E08093FE05089521E02093E607609307
:10312000690470936A0480936B0490936C0440E08C
:1031300050E0BA0180916D0490916E040C9469186E
:1031400060E070E080E291E40C948C1860E070E044
:1031500080E89FE30C948C186DEC7CEC8CEC9DE388
:103160000C948C1840E050E0BA0186E990E30E948C
:103170006918109265041092660410926704109208
:10318000680481E08093E607089540E050E0BA01CA
:103190008AE493E30C946918E0916304EE2389F0C8
:1031A000E150E093630486E0E89FF0011124E15CC4
:1031B000FB4F4281538164817581808191810C94A0
:1031C00069180C94C518EF92FF920F93CF93DF9379
:1031D000D82F7A01C22F80E00E94E4C3D11101C030
:1031E000C0E28C2F0E9434C4C2E1F70164916623CF
:1031F00059F0CC2389F085E79FE00E94FEC3C150BF
:10320000FFEFEF1AFF0AF1CFC15030F060E285E71F
:103210009FE00E94FEC3F8CF802FDF91CF910F91E6
:10322000FF90EF900C9434C42F923F924F925F9294
:103230006F927F928F929F92AF92BF92CF92DF92C6
:10324000EF92FF920F931F93CF93DF9361E081E0A2
:103250000E94EE17C0910106D12C23E0322ECC241F
:10326000C39434E4232E4CED842E45E0942EA12CFF
:10327000B12C56ED452E56E0552E612C712CC11106
:1032800080C08091FF05882309F45AC080914502CF
:10329000882361F081E09091FF05911180E003E0C7
:1032A00023E044E858E16D2D0E94E31880919603D5
:1032B000882309F40FC1D3E0C23009F00CC180911A
:1032C000FF05823009F491C0809145028111F0C060
:1032D000D3E081E08D0F8C132AC08091FF058C17FD
:1032E00009F44AC180914502882309F12F928AE4AA
:1032F0008F9380E88F931F921F921F928AE893E02A
:103300009F938F9380E298E19F938F93DF9281E068
:103310009091FF059C1380E08F930E947CD98DB71C
:103320009EB70C960FB6F8949EBF0FBE8DBFCF5FB1
:10333000D39494E0D912A3CFDE5FD09300060EC0E1
:1033400080910B06882309F4A1CF10920B060E94EE
:10335000CC188091FE05882309F498CFDF91CF9196
:103360001F910F91FF90EF90DF90CF90BF90AF90A3
:103370009F908F907F906F905F904F903F902F9095
:103380000895C13009F092CF8091FF058130C9F0D6
:1033900080914502882309F489CF809196032CE619
:1033A00038E1811102C022E638E181E09091FF0509
:1033B000913009F080E044E758E16D2D0E94E6D895
:1033C00075CF80910B06882319F380919603109294
:1033D0000B068C2780939603309245020E94681654
:1033E0008091FE058823A1F2B9CF80910B06882336
:1033F00009F46ACF10920B06C0920A0610920606D4
:103400001092070610920806109209060E944918A9
:103410003092450283E598E19093D2078093D107DB
:1034200082E993E09093D0078093CF078092CB07F7
:103430009092CC07A092CD07B092CE074092C707DA
:103440005092C8076092C9077092CA0720E030E026
:103450004AE754E46091920370919303809194033E
:10346000909195030E942AEA20E030E84BEB54E467
:103470000E94F3ED0E9467EF6093C3077093C40747
:103480008093C5079093C6078BE490EC90933D0220
:1034900080933C0288E696E19093D5078093D40709
:1034A0001092D3078091FE05882309F40DCF56CFE3
:1034B000D1E08091FF05823009F0D0E082E993E00D
:1034C0000E94B6BF9C0144E458E16D2D8D2F0E94EF
:1034D0002ED9FECED2E0DC13FCCE8091FF058D17F5
:1034E00039F180914502882309F4F3CE2F928AE4C2
:1034F0008F9380E88F931F921F921F928EE893E024
:103500009F938F9380E398E19F938F93DF9281E065
:103510009091FF059C1380E08F930E947CD98DB71A
:103520009EB70C960FB6F8949EBF0FBE8DBFD1CE3E
:1035300080910B068823A9F210920B06C0920A060E
:1035400010920606109207061092080610920906BD
:10355000E12C10E8F12E0AE414E420E030E0A901A7
:103560006EE873E08AE398E10E946DC18091FE05E8
:10357000882309F4B6CFF2CE80910B06882309F494
:10358000B1CE10920B06C0920A0610920606109257
:1035900007061092080610920906E12C10E8F12E99
:1035A0000AE414E420E030E0A9016AE873E088E26C
:1035B00098E10E946DC18091FE05882309F492CEA6
:1035C000CDCE0F93CF93DF9361E081E00E94EE17A1
:1035D000D0910106C0E0D1112CC08091FF05882355
:1035E000C1F080914502882361F081E09091FF0550
:1035F000911180E003E023E047E158E16C2F0E9445
:10360000E318DF5FCF5FC43031F785E080930006B9
:103610000CC080910B06882321F310920B060E94A8
:10362000CC188091FE058823E1F2DF91CF910F91B4
:103630000895D13011F58091FF05813079F08091A6
:1036400045028823F1F281E09091FF05913009F065
:1036500080E00EE32EE34CE058E1D0CF80910B06E2
:10366000882369F310920B068EEA9BE10E94CDD964
:103670008091FE05882319F3D8CFD23009F055C0C8
:103680008091FF05823081F080914502882309F402
:10369000B8CF81E09091FF05923009F080E00EE311
:1036A0002EE34FEF57E1AACF80910B06882361F3F9
:1036B00010920B068CEE9DE10E94CDD98091FE0503
:1036C000882311F3B2CF8091FF05833081F0809180
:1036D0004502882309F495CF81E09091FF0593304E
:1036E00009F080E00EE32EE34AEF57E187CF8091A7
:1036F0000B06882361F310920B0684EE90E20E9481
:10370000CDD98091FE05882311F38FCF80910B06D0
:103710008823A1F010920B0683E892E20E94CDD993
:103720008091FE05882351F080CFD33061F2D430F0
:1037300009F067CF8091FF05843041F38091450205
:10374000882309F45ECF81E09091FF05943009F061
:1037500080E00EE32EE341EF57E150CF3F924F92CE
:103760005F926F927F928F929F92AF92BF92CF9211
:10377000DF92EF92FF920F931F93CF93DF9361E05D
:1037800081E00E94EE17C0910106D0E055245394C9
:1037900063E0462E77EE372EE5E9CE2EE6E1DE2E0B
:1037A000F3EAAF2EF6E1BF2EA1EB8A2EA6E19A2E08
:1037B000BFEB6B2EB6E17B2EC1113AC08091FF05A5
:1037C0008823C1F080914502882361F081E09091C7
:1037D000FF05911180E003E023E04DEC56E16D2FF1
:1037E0000E94E318CF5FDF5FD43031F787E080932A
:1037F00000060CC080910B06882321F310920B0663
:103800000E94CC188091FE058823E1F2DF91CF91D0
:103810001F910F91FF90EF90DF90CF90BF90AF90EE
:103820009F908F907F906F905F904F903F90089502
:10383000C13009F04AC08091FF05813009F18091C3
:103840004502882379F24F923F921F925F928BE25A
:1038500098E09F938F937F926F92DF9381E0909196
:10386000FF05913009F080E08F930E947CD98DB7DD
:103870009EB70A960FB6F8949EBF0FBE8DBFB2CF0B
:1038800080910B068823D9F210920B06C0930A068A
:10389000109206061092070610920806109209066A
:1038A000E12C10ECF12E09E714E420E030E040E8D0
:1038B0005FE36BE278E086EC96E10E946DC1809157
:1038C000FE05882309F4BBCFA1CFC23009F050C157
:1038D0008091FF05823011F180914502882309F41F
:1038E00081CF4F923F921F925F928FE298E09F9319
:1038F0008F939F928F92DF9381E09091FF0592309A
:1039000009F080E08F930E947CD98DB79EB70A960C
:103910000FB6F8949EBF0FBE8DBF64CF80910B068B
:103920008823D1F210920B0650920A0610920606D6
:10393000109207061092080610920906E12C10EC6E
:10394000F12E09E714E420E030E040E85FE36FE2A5
:1039500078E088EB96E10E946DC18091FE05882396
:1039600009F4BACF53CF8091FF05833011F18091D4
:103970004502882309F436CF4F923F921F925F92FF
:1039800083E398E09F938F93BF92AF92DF9381E0A0
:103990009091FF05933009F080E08F930E947CD9CD
:1039A0008DB79EB70A960FB6F8949EBF0FBE8DBF17
:1039B00019CF80910B068823D1F210920B065092FA
:1039C0000A06109206061092070610920806109238
:1039D0000906E12C10ECF12E09E714E420E030E0B8
:1039E00040E85FE363E378E08AEA96E10E946DC114
:1039F0008091FE05882309F4BACF08CF8091FF0596
:103A0000843011F180914502882309F4EBCE4F9266
:103A10003F921F925F9287E398E09F938F93DF928C
:103A2000CF92DF9381E09091FF05943009F080E020
:103A30008F930E947CD98DB79EB70A960FB6F894E3
:103A40009EBF0FBE8DBFCECE80910B068823D1F2D4
:103A500010920B0650920A06109206061092070664
:103A60001092080610920906E12C10ECF12E09E7DD
:103A700014E420E030E040E85FE367E378E08CE9BD
:103A800096E10E946DC18091FE05882309F4BACFAA
:103A9000BDCE8091FF05853021F1809145028823BC
:103AA00009F4A0CE4F923F921F921F9287E598E0B3
:103AB0009F938F938BE896E19F938F93DF9381E0A1
:103AC0009091FF05953009F080E08F930E947CD99A
:103AD0008DB79EB70A960FB6F8949EBF0FBE8DBFE6
:103AE00081CE80910B068823C1F210920B06509272
:103AF0000A06109206061092070610920806109207
:103B00000906E12C10ECF12E09E714E420E030E086
:103B1000A90167E578E080E996E10E946DC1809196
:103B2000FE05882309F4B9CF71CE80910B06882356
:103B300079F110920B0650920A0610920606109226
:103B400007061092080610920906E12C10ECF12EDF
:103B500009E714E420E030E0A90163E578E089E7B3
:103B600096E10E946DC18091FE05882389F04ECEBA
:103B7000C33009F4F8CEC43009F440CFC53009F49D
:103B800088CFC63009F02ECE8091FF05863069F2CD
:103B900080914502882309F425CE4F923F921F92CF
:103BA0001F9283E598E09F938F9387E696E19F931A
:103BB0008F93DF9381E09091FF05963009F080E0CC
:103BC0008F930E947CD98DB79EB70A960FB6F89452
:103BD0009EBF0FBE8DBF06CE2F923F924F925F9237
:103BE0006F927F928F929F92AF92BF92CF92DF920D
:103BF000EF92FF920F931F93CF93DF9300D01F920A
:103C0000CDB7DEB761E081E00E94EE1710910106AA
:103C1000F12CEE24E3948BE1C82E87E1D82E812C81
:103C2000912C540183942DED422E23E0522E612CD1
:103C3000712C3BE9232E3CEC332E111140C08091B6
:103C4000FF058823C9F080914502882361F081E057
:103C50009091FF05911180E003E023E047E457E1F4
:103C60006F2D0E94E3181F5FF394B4E0FB12E5CFC1
:103C700088E0809300060CC080910B06882319F31E
:103C800010920B060E94CC188091FE058823D9F271
:103C90000F900F900F900F90DF91CF911F910F9188
:103CA000FF90EF90DF90CF90BF90AF909F908F905C
:103CB0007F906F905F904F903F902F9008951130BC
:103CC00009F077C08091FF058130B1F08091450205
:103CD000882349F201E08091FF05813009F000E07E
:103CE00083E298E00E9422CB9C014BE357E16F2DC9
:103CF000802F0E942ED9B7CF80910B06882331F3F5
:103D000010920B0610930A061092060610920706F0
:103D100010920806109209060E94491883E08093C9
:103D20004502A1E4B7E1B093D207A093D10783E2A3
:103D300098E09093D0078093CF071092CB07109212
:103D4000CC071092CD071092CE078EED93E0A0E045
:103D5000B0E08093C7079093C807A093C907B093BA
:103D6000CA072AE037ED43E25CE3609123087091D3
:103D7000240880912508909126080E942AEA0E9432
:103D800067EF6093C3077093C4078093C507909350
:103D9000C60730923D0220923C021092D507109245
:103DA000D4071092D3078091FE05882309F48ECFA3
:103DB0006FCF123009F0D4C18091FF05823099F0A5
:103DC00080914502882309F44ECF01E08091FF05E0
:103DD000823009F000E087E298E00E9422CB9C014B
:103DE00047E257E184CF80910B06882349F3109274
:103DF0000B06E0920A061092060610920706109231
:103E00000806109209060E94491893E09093450213
:103E1000A1E3B7E1B093D207A093D10787E298E07E
:103E20009093D0078093CF078092CB079092CC07D6
:103E3000A092CD07B092CE074092C7075092C80714
:103E40006092C9077092CA072AE037ED43E25CE34B
:103E500060912708709128088091290890912A087C
:103E60000E942AEA20E030E040E85FE30E94F3EDA0
:103E70000E9467EF6093C3077093C4078093C507E0
:103E80009093C60730923D0220923C021092D507D3
:103E90001092D4071092D3078091FE05882309F46D
:103EA0008FCFF6CE8091FF05833099F08091450247
:103EB000882309F4D8CE01E08091FF05833009F012
:103EC00000E08FE198E00E9422CB9C014FE057E197
:103ED0000ECF80910B06882349F310920B06E092D7
:103EE0000A06109206061092070610920806109213
:103EF00009060E94491810934502D092D207C09239
:103F0000D107AFE1B8E0B093D007A093CF0780927C
:103F1000CB079092CC07A092CD07B092CE074092EB
:103F2000C7075092C8076092C9077092CA072AE073
:103F300037ED43E25CE360911F08709120088091A7
:103F40002108909122080E942AEA20E030E040E80F
:103F50005FE30E94F3ED0E9467EF6093C3077093E5
:103F6000C4078093C5079093C60730923D02209204
:103F70003C021092D5071092D4071092D30780917B
:103F8000FE05882309F492CF83CE8091FF0584300B
:103F900009F180914502882309F465CE01E0809102
:103FA000FF05843009F000E060917A0370917B0393
:103FB00080917C0390917D030E94C9E969837A8393
:103FC0008B839C83CE0101960E9422CB9C0141E011
:103FD00057E18DCE80910B068823D9F210920B0603
:103FE000E0920A0610920606109207061092080642
:103FF0001092090624E630E040E050E06AE773E002
:1040000088E097E10E94DEC18091FE05882309F2D5
:104010003FCE8091FF05853009F1809145028823CC
:1040200009F421CE01E08091FF05853009F000E020
:1040300060917E0370917F03809180039091810352
:104040000E94C9E969837A838B839C83CE010196A0
:104050000E9422CB9C0143EF56E149CE80910B0692
:104060008823D9F210920B06E0920A0610920606F7
:1040700010920706109208061092090624E630E016
:1040800040E050E06EE773E08AEF96E10E94DEC107
:104090008091FE05882309F2FBCD8091FF058630D3
:1040A00009F180914502882309F4DDCD01E080917A
:1040B000FF05863009F000E0609182037091830370
:1040C00080918403909185030E94C9E969837A8372
:1040D0008B839C83CE0101960E9422CB9C0145EEEE
:1040E00056E105CE80910B068823D9F210920B067B
:1040F000E0920A0610920606109207061092080631
:10410000109209062AE030E040E050E062E873E0F7
:104110008CEE96E10E94DEC18091FE05882309F2B3
:10412000B7CD80910B06882371F110920B06E092B7
:104130000A061092060610920706109208061092C0
:10414000090624E630E040E050E066E873E08EEDDA
:1041500096E10E94DEC18091FE058823A1F098CDF2
:10416000133009F49FCE143009F40FCF153009F441
:1041700050CF163009F491CF173009F074CD8091EB
:10418000FF05873071F280914502882309F46BCDD9
:1041900001E08091FF05873009F000E0609186031F
:1041A0007091870380918803909189030E94C9E9E7
:1041B00069837A838B839C83CE0101960E9422CBF4
:1041C0009C0147ED56E193CD3F924F925F926F92E3
:1041D0007F928F929F92AF92BF92CF92DF92EF9297
:1041E000FF920F931F93CF93DF9361E081E00E94D2
:1041F000EE17C0910106D0E05524539443E0442EBD
:104200005EED352E61E5C62E67E1D62E71E6672E8E
:104210007AEC772EE1E7AE2EE7E1BE2EF1E88F2EA5
:10422000F7E19F2EC1113AC08091FF058823C1F0AC
:1042300080914502882361F081E09091FF05911102
:1042400080E003E023E041E957E16D2F0E94E3188D
:10425000CF5FDF5FD43031F785E0809300060CC07C
:1042600080910B06882321F310920B060E94CC1834
:104270008091FE058823E1F2DF91CF911F910F918C
:10428000FF90EF90DF90CF90BF90AF909F908F9076
:104290007F906F905F904F903F900895C13009F0EC
:1042A0004AC08091FF05813009F180914502882341
:1042B00079F24F923F921F925F928BEF97E09F931C
:1042C0008F939F928F92DF9381E09091FF059130C1
:1042D00009F080E08F930E947CD98DB79EB70A9633
:1042E0000FB6F8949EBF0FBE8DBFB2CF80910B0664
:1042F0008823D9F210920B06C0930A061092060684
:10430000109207061092080610920906E12C10E898
:10431000F12E07E714E420E030E040E85FE36BEFC4
:1043200077E089E897E10E946DC18091FE058823BE
:1043300009F4BBCFA1CFC23009F0B9C08091FF050D
:10434000823011F180914502882309F481CF4F9288
:104350003F921F925F928FEF97E09F938F93BF9250
:10436000AF92DF9381E09091FF05923009F080E0F9
:104370008F930E947CD98DB79EB70A960FB6F8949A
:104380009EBF0FBE8DBF64CF80910B068823D1F2F4
:1043900010920B0650920A0610920606109207061B
:1043A0001092080610920906E12C10E8F12E07E79A
:1043B00014E420E030E040E85FE36FEF77E089E766
:1043C00097E10E946DC18091FE05882309F4BACF60
:1043D00053CF8091FF058330B9F080914502882347
:1043E00009F436CF11E08091FF05833009F010E029
:1043F00083E098E00E94C2C99C0141E657E16D2F1D
:10440000812F0E942ED924CF80910B06882329F377
:1044100010920B0650920A0610920606109207069A
:104420001092080610920906E12C10E8F12E07E719
:1044300014E42DEC3CEC4CEC5DE363E078E089E6C1
:1044400097E10E948ADA70923D0260923C021092DB
:10445000D5071092D4071092D3078091FE058823C8
:1044600009F4BBCF09CF80910B06882351F110923C
:104470000B0650920A06109206061092070610923A
:10448000080610920906E12C10E8F12E07E714E463
:1044900020E030E040E85FE367E078E089E597E11D
:1044A0000E946DC18091FE05882359F0E5CEC3308E
:1044B00009F48FCFC43009F0CBCE8091FF05843052
:1044C00091F280914502882309F4C2CE4F923F9227
:1044D0001F925F9287E098E09F938F93DF92CF9235
:1044E000DF9381E09091FF05943009F080E08F9395
:1044F0000E947CD98DB79EB70A960FB6F8949EBFDE
:104500000FBE8DBFA5CE9F92AF92BF92CF92DF928A
:10451000EF92FF920F931F93CF93DF9361E081E0BF
:104520000E94EE17C0910106D0E09924939441E0D7
:10453000C42E49ECD42E5EEBA52E55E4B52EC11148
:1045400034C08091FF058823C1F080914502882303
:1045500061F081E09091FF05911180E003E023E09C
:1045600047EE57E16D2F0E94E318CF5FDF5FD43035
:1045700031F785E0809300060CC080910B068823FC
:1045800021F310920B060E94CC188091FE0588231F
:10459000E1F2DF91CF911F910F91FF90EF90DF90AB
:1045A000CF90BF90AF909F900895C13009F049C05F
:1045B0008091FF058130B1F0809145028823A9F2F6
:1045C00011E08091FF05813009F010E08FE29DE05D
:1045D0000E9441C89C0141ED57E16D2F812F0E943F
:1045E0002ED9C3CF80910B06882331F310920B068E
:1045F000C0930A061092060610920706109208064B
:1046000010920906E12C1CE3F12E0CE116E420E0E7
:1046100030E040EA50E46FE27DE08CED97E10E94EB
:104620008ADAD0923D02C0923C02B092D507A092A5
:10463000D4071092D3078091FE05882309F4BCCFDC
:10464000A8CFC23009F0BAC08091FF05823099F03E
:1046500080914502882309F488CF11E08091FF05FD
:10466000823009F010E083E39DE00E9441C89C0184
:104670004BEB57E1B2CF80910B06882349F31092A0
:104680000B0690920A0610920606109207061092E8
:10469000080610920906E12C1CE3F12E0CE116E449
:1046A00020E030E040EA50E463E37DE086EC97E10F
:1046B0000E948ADAD0923D02C0923C02B092D507A5
:1046C000A092D4071092D3078091FE05882309F4A5
:1046D000BFCF5FCF8091FF05833099F08091450275
:1046E000882309F442CF11E08091FF05833009F05F
:1046F00010E087E39DE00E9441C89C0145EA57E134
:104700006CCF80910B06882349F310920B06909290
:104710000A061092060610920706109208061092DA
:104720000906E12C1CE3F12E0CE116E420E030E058
:1047300040EA50E467E37DE080EB97E10E948ADA8B
:10474000D0923D02C0923C02B092D507A092D4070D
:104750001092D3078091FE05882309F4BFCF19CFAB
:1047600080910B068823A1F110920B0690920A0605
:10477000109206061092070610920806109209067B
:10478000E12C1CE3F12E0CE116E420E030E040EADD
:1047900050E46BE37DE080EA97E10E948ADAD092F0
:1047A0003D02C0923C02B092D507A092D40710926D
:1047B000D3078091FE05882359F0EBCEC33009F46E
:1047C00089CFC43009F0D1CE8091FF05843041F209
:1047D00080914502882309F4C8CE11E08091FF053D
:1047E000843009F010E08BE39DE00E9441C89C01F9
:1047F0004BE957E1F2CE2F923F924F925F926F9228
:104800007F928F929F92AF92BF92CF92DF92EF9260
:10481000FF920F931F93CF93DF9361E081E00E949B
:10482000EE17C0910106D0E03324339461E6462EA2
:104830006AEC562E73E4272EE7EA6E2EE5E17E2E13
:10484000F6EDCF2EF5E1DF2EA4EFAA2EA5E1BA2ECC
:10485000BEEF8B2EB5E19B2EC11188C08091FF0564
:10486000882309F462C080914502882361F081E0C9
:104870009091FF05911180E003E023E04AE056E1CA
:104880006D2F0E94E3182CEA35EC47E25EE360915D
:10489000690370916A0380916B0390916C030E948D
:1048A000EEEE609373047093740480937504909398
:1048B00076042CEA35EC47E25EE360916503709183
:1048C000660380916703909168030E942AEA6093CF
:1048D0006F04709370048093710490937204C830D5
:1048E00009F073C28091FF05883009F448C28091B5
:1048F0004502882389F011E08091FF05883009F096
:1049000010E081E693E00E94C2C99C014FE755E1A7
:104910006D2F812F0E942ED9CF5FDF5FD43009F039
:104920009BCF8DE0809300060EC080910B068823FC
:1049300009F499CF10920B060E94CC188091FE05C5
:10494000882309F490CFDF91CF911F910F91FF90B1
:10495000EF90DF90CF90BF90AF909F908F907F901F
:104960006F905F904F903F902F900895C13009F065
:104970004DC08091FF05813039F180914502882337
:1049800009F481CF85E797E19F938F933F9284E06D
:104990008F931F921F928FE69FE09F938F939F921A
:1049A0008F92DF9381E09091FF05913009F080E0D4
:1049B0008F930E9468D98DB79EB70C960FB6F89466
:1049C0009EBF0FBE8DBF5FCF80910B068823A9F2DB
:1049D00010920B06C0930A06109206061092070664
:1049E000109208061092090605E717E124E031E06D
:1049F00050E040E06FE67FE084E096E10E940CC169
:104A00008091FE05882309F4B8CF9DCFC23009F00C
:104A100092C28091FF05823039F18091450288234E
:104A200009F431CF87E692E39F938F931F9288E733
:104A30008F931F921F9286ED97E09F938F93BF9263
:104A4000AF92DF9381E09091FF05923009F080E012
:104A50008F930E9468D98DB79EB70C960FB6F894C5
:104A60009EBF0FBE8DBF0FCF80910B068823A9F28A
:104A700010920B0630920A06109206061092070654
:104A8000109208061092090607E612E328E730E0C4
:104A900050E040E066ED77E089EF95E10E940CC1BF
:104AA0008091FE05882309F4B8CF4DCF8091FF0592
:104AB000833019F180914502882309F4E4CE1F92D6
:104AC0008FEF8F931F921F928BE598E09F938F93A8
:104AD000DF92CF92DF9381E09091FF05933009F050
:104AE00080E08F930E9468D98DB79EB70A960FB663
:104AF000F8949EBF0FBE8DBFC6CE80910B06882353
:104B0000C9F210920B0630920A0610920606109215
:104B10000706109208061092090610E000E02FEF39
:104B200030E050E040E06BE578E085EE95E10E94F2
:104B30000CC18091FE05882309F4BCCF04CF90916D
:104B4000FF059430B9F080914502882309F49BCE8B
:104B500080916D032DEB35E1811102C023EB35E12E
:104B600081E0943009F080E045EC55E16D2F0E9422
:104B7000E6D889CE80910B06882329F310920B0684
:104B800080916D03832580936D0383E080934502BC
:104B90008091FE058823B9F2D6CE8091FF0585303D
:104BA00009F46AC0809145028823F9F02F9282E8C7
:104BB0008F931F921F921F921F9286E292E09F9303
:104BC0008F937F926F92DF9381E09091FF059530F4
:104BD00009F080E08F930E947CD98DB79EB70C9628
:104BE0000FB6F8949EBF0FBE8DBF2CEA35EC47E29E
:104BF0005EE36091690370916A0380916B03909109
:104C00006C030E94EEEE60937304709374048093BF
:104C10007504909376042CEA35EC47E25EE36091EC
:104C200065037091660380916703909168030E9409
:104C30002AEA60936F0470937004809371049093D8
:104C40007204CB3009F440C1CC3009F065CE8091BC
:104C5000FF058C3009F45EC180914502882309F478
:104C60005BCE81E09091FF059C3009F080E00EE37F
:104C70002EE34FE455E13BC180910B06882309F4F4
:104C800091CF10920B06E12CF12C02E813E420E006
:104C900030E0A90166E272E08DEA95E10E946DC103
:104CA0008091FE05882309F47DCF4DCE8091FF05CC
:104CB000863039F180914502882309F496CF2F92EE
:104CC00082E88F931F921F921F921F9282E292E0BE
:104CD0009F938F938BE995E19F938F93DF9381E06F
:104CE0009091FF05963009F080E08F930E947CD967
:104CF0008DB79EB70C960FB6F8949EBF0FBE8DBFB2
:104D0000C2CD80910B068823A9F210920B06E12CEC
:104D1000F12C02E813E420E030E0A90162E272E045
:104D200081EA95E10E946DC18091FE05882311F210
:104D30000ACE80910B06882309F411C110920B064C
:104D4000E12CF12C00E211E420E030E0A9016EE159
:104D500072E083E995E10E948ADA8FE69EEC9093F7
:104D60003D0280933C021092D5071092D407109216
:104D7000D3078091FE05882309F4F1C0E4CD80912A
:104D80000B06882309F4B3CD10920B06E12C18E131
:104D9000F12E0CE116E420E030E040E85FE361E64C
:104DA00073E085E895E10E948ADA50923D024092D4
:104DB0003C021092D5071092D4071092D30780912D
:104DC000FE05882309F493CDBECDC930E9F5809165
:104DD000FF05893099F080914502882309F49CCD24
:104DE00011E08091FF05893009F010E083E794E03D
:104DF0000E94C2C99C0143E755E18ACD80910B0610
:104E0000882349F310920B06E12C18E1F12E0CE1F6
:104E100016E42AE037ED43E25CE363E774E089E7F8
:104E200095E10E948ADA50923D0240923C0286E06F
:104E300096E19093D5078093D4071092D307809181
:104E4000FE05882341F27FCDCA3009F0FACE809169
:104E5000FF058A3099F080914502882309F45CCDE2
:104E600011E08091FF058A3009F010E08FE694E0B0
:104E70000E94C2C99C0147E655E14ACD80910B06CC
:104E8000882349F310920B06E12C18E1F12E0CE176
:104E900016E420E030E040E85FE36FE674E08DE682
:104EA00095E10E948ADA50923D0240923C028FEED8
:104EB00095E19093D5078093D4071092D307809102
:104EC000FE05882341F23FCD8091FF058B3099F09C
:104ED00080914502882309F41FCD81E09091FF0560
:104EE0009B3009F080E00EE32EE34BE555E16D2F9A
:104EF0000E94E31811CD80910B06882349F310928C
:104F00000B0687E591E60E94CDD98091FE058823A6
:104F1000F9F219CD80910B06882309F49DCE1092E9
:104F20000B0684E591E60E94CDD98091FE05882389
:104F300009F492CE08CDC33009F4B8CDC43009F4D9
:104F4000FECDC53009F429CEC63009F4AFCEC73046
:104F500009F099CC8091FF05873009F4EACE809161
:104F60004502882309F441CE11E08091FF05873086
:104F700009F010E08EE192E00E94D2CD9C014BE856
:104F800055E16D2F812F0E942ED97DCC0F93CF93A9
:104F9000DF9361E081E00E94EE17D0910106C0E04E
:104FA000D1112CC08091FF058823C1F0809145026A
:104FB000882361F081E09091FF05911180E003E08A
:104FC00023E04BEB54E16C2F0E94E318DF5FCF5FCF
:104FD000C43031F785E0809300060CC080910B0649
:104FE000882321F310920B060E94CC188091FE05B5
:104FF0008823E1F2DF91CF910F910895D13011F51F
:105000008091FF05813079F0809145028823F1F28B
:1050100081E09091FF05913009F080E00EE32EE3EE
:1050200043EB54E1D0CF80910B06882369F31092B3
:105030000B068FEE99E20E94CDD98091FE05882360
:1050400019F3D8CFD23009F055C08091FF058230D6
:1050500081F080914502882309F4B8CF81E09091D6
:10506000FF05923009F080E00EE32EE34BEA54E1B5
:10507000AACF80910B06882361F310920B0684EF70
:1050800099E20E94CDD98091FE05882311F3B2CF19
:105090008091FF05833081F080914502882309F4D7
:1050A00095CF81E09091FF05933009F080E00EE309
:1050B0002EE343EA54E187CF80910B06882361F306
:1050C00010920B0689EF99E20E94CDD98091FE05DE
:1050D000882311F38FCF80910B068823A1F01092C3
:1050E0000B068EEF99E20E94CDD98091FE058823B0
:1050F00051F080CFD33061F2D43009F067CF809186
:10510000FF05843041F380914502882309F45ECF86
:1051100081E09091FF05943009F080E00EE32EE3EA
:1051200044E954E150CF0F931F93CF93DF93182F8F
:1051300070936E0460936D0461E081E00E94EE174D
:10514000D0910106C0E081E0113009F45BC050F15C
:10515000123009F481C0D111A7C08823D9F0809101
:10516000FF051816BCF04091C3075091C407609129
:10517000C5077091C6074F5F5F4F6F4F7F4F4093DA
:10518000C3075093C4076093C5077093C6078F5F2A
:105190008093FF0580914502882351F141E06DE63F
:1051A00074E156C0D11180C08823D9F08091FF05E9
:1051B0001816BCF04091C3075091C4076091C50711
:1051C0007091C6074F5F5F4F6F4F7F4F4093C3078C
:1051D0005093C4076093C5077093C6078F5F809391
:1051E000FF058091450241E06CE874E1811130C017
:1051F000DF5F80E0CF5FC43009F0A6CF85E0809309
:10520000000677C0D11150C08823D9F08091FF05E6
:105210001816BCF04091C3075091C4076091C507B0
:105220007091C6074F5F5F4F6F4F7F4F4093C3072B
:105230005093C4076093C5077093C6078F5F809330
:10524000FF058091450241E064E874E1882381F222
:105250008C2F0E94BAD5CCCFD11126C08823D9F08B
:105260008091FF051816BCF04091C3075091C40708
:105270006091C5077091C6074F5F5F4F6F4F7F4FBB
:105280004093C3075093C4076093C5077093C60744
:105290008F5F8093FF058091450241E06CE774E1E8
:1052A000882309F4A5CFD4CFD13041F58091FF05F3
:1052B000813099F080914502882309F499CF81E0EB
:1052C0009091FF05913009F080E003E023E042E691
:1052D00054E16C2F0E94E3188BCF80910B0688233A
:1052E00049F310920B060E94CC188091FE0588238A
:1052F00009F3DF91CF911F910F910895D23009F0FA
:1053000055C08091FF05823081F08091450288234D
:1053100009F46ECF81E09091FF05923009F080E0B2
:105320000EE32EE347E554E1D4CF80910B068823AA
:1053300061F310920B0680EA98E10E94CDD980912A
:10534000FE05882311F3D5CF8091FF05833081F0CE
:1053500080914502882309F44BCF81E09091FF05AD
:10536000933009F080E00EE32EE34DE454E1B1CF39
:1053700080910B06882361F310920B0686EA98E170
:105380000E94CDD98091FE05882311F3B2CF809180
:105390000B068823A1F010920B068CEA98E10E947C
:1053A000CDD98091FE05882351F0A3CFD33061F28F
:1053B000D43009F01DCF8091FF05843041F38091F6
:1053C0004502882309F414CF81E09091FF059430C1
:1053D00009F080E00EE32EE341E454E17ACF61E985
:1053E00070E380E00C9493286CE870E381E00C9407
:1053F000932867E870E382E00C9493286FEF7EE2D5
:1054000083E00C9493280F93CF93DF9361E081E0C6
:105410000E94EE17D0910106C0E0D1112BC08091FF
:10542000FF058823B9F080914502882361F081E06F
:105430009091FF05911180E003E023E045E153E105
:105440006C2F0E94E318DF5FCF5FC43031F7C09349
:1054500000060CC080910B06882329F310920B06DE
:105460000E94CC188091FE058823E9F2DF91CF914C
:105470000F910895D13061F58091FF05813079F069
:10548000809145028823F9F281E09091FF059130E7
:1054900009F080E000E22EE345E053E1D1CF8091B6
:1054A0000B06882369F310920B0640917603509106
:1054B000770360916E0370916F03809172039091F6
:1054C00073030E94A1D18091FE058823C9F2CECF3B
:1054D000D23009F042C08091FF05823081F0809186
:1054E0004502882309F4AFCF81E09091FF05923007
:1054F00009F080E000E22EE344EE52E1A1CF80917A
:105500000B06882361F310920B06409176035091AD
:1055100077036FEF7FEF80917203909173030E9486
:10552000A1D18091FE058823D1F2A0CF80910B06F6
:105530008823D1F010920B064091760350917703A7
:1055400060916E0370916F0390E080E00E94A1D1A2
:105550008091FE05882341F089CFD33009F073CFC5
:105560008091FF05833011F380914502882309F46F
:105570006ACF81E09091FF05933009F080E000E26E
:105580002EE345EF52E15CCF0F93CF93DF9361E0C1
:1055900081E00E94EE17D0910106C0E0D1112BC02E
:1055A0008091FF058823B9F080914502882361F03E
:1055B00081E09091FF05911180E003E023E04FE44A
:1055C00053E16C2F0E94E318DF5FCF5FC43031F7E7
:1055D000C09300060CC080910B06882329F310921B
:1055E0000B060E94CC188091FE058823E9F2DF911A
:1055F000CF910F910895D13061F58091FF058130F1
:1056000079F0809145028823F9F281E09091FF05BD
:10561000913009F080E000E22EE34FE353E1D1CF77
:1056200080910B06882369F310920B064091780352
:1056300050917903609170037091710380917403AC
:10564000909175030E94A1D18091FE058823C9F233
:10565000CECFD23009F042C08091FF05823081F078
:1056600080914502882309F4AFCF81E09091FF0536
:10567000923009F080E000E22EE34EE253E1A1CF48
:1056800080910B06882361F310920B0640917803FA
:10569000509179036FEF7FEF8091740390917503C0
:1056A0000E94A1D18091FE058823D1F2A0CF8091E4
:1056B0000B068823D1F010920B064091780350918D
:1056C0007903609170037091710390E080E00E9413
:1056D000A1D18091FE05882341F089CFD33009F014
:1056E00073CF8091FF05833011F3809145028823A9
:1056F00009F46ACF81E09091FF05933009F080E0D2
:1057000000E22EE34EE153E15CCF2F923F924F92A5
:105710005F926F927F928F929F92AF92BF92CF9241
:10572000DF92EF92FF920F931F93CF93DF9361E08D
:1057300081E00E94EE17D0910106C0E0FF24F394AF
:1057400083E0E82E97EE792E2AE0622E3FE7232EA3
:1057500032E1332E4BE8442E42E1542E53EBC52E5A
:1057600052E1D52E6FEBA62E62E1B62E7CE6872E97
:1057700072E1972ED11135C08091FF05882391F0F9
:1057800080914502882309F454C081E09091FF057F
:10579000911180E003E023E045ED52E16C2F0E947F
:1057A000E31847C080910B06882351F310920B0633
:1057B0000E94CC188091FE05882311F3DF91CF91D0
:1057C0001F910F91FF90EF90DF90CF90BF90AF901F
:1057D0009F908F907F906F905F904F903F902F9011
:1057E0000895D13009F06FC08091FF05813009F430
:1057F00051C0809145028823E1F0EF927F921F9281
:105800006F928FE092E09F938F93BF92AF92CF936E
:1058100081E09091FF05913009F080E08F930E9424
:1058200068D98DB79EB70A960FB6F8949EBF0FBE83
:105830008DBF80915D0881110CC020916F0F309158
:10584000700F8091430290914402281739070CF49D
:1058500087C1D730B1F48091FF05873009F46DC15D
:1058600080914502882369F081E09091FF0597308F
:1058700009F080E000E22EE34BE552E16C2F0E943C
:10588000E318DF5FCF5FC43009F074CF88E0809306
:10589000000694CF80910B06882309F4AACF1092BA
:1058A0000B0610E000E027EE33E04AE050E06FE046
:1058B00072E08AEC92E10E940CC18091FE0588237F
:1058C00009F497CF7BCFD23009F070C18091FF05EA
:1058D000823039F180914502882309F4AACF85E707
:1058E00097E19F938F93FF9294E09F931F921F9253
:1058F0008FE69FE09F938F93DF92CF92CF9381E0CB
:105900009091FF05923009F080E08F930E9468D952
:105910008DB79EB70C960FB6F8949EBF0FBE8DBF85
:1059200088CF80910B068823A9F210920B06F09283
:105930000A061092060610920706109208061092A8
:10594000090605E717E124E031E050E040E06FE6AA
:105950007FE089EB92E10E940CC18091FE058823D3
:1059600009F4B8CF2BCF8091FF05833049F18091A6
:105970004502882309F45DCF87E692E39F938F93D6
:105980001F9298E79F931F921F9286ED97E09F9337
:105990008F9389EA92E19F938F93CF9381E09091C7
:1059A000FF05933009F080E08F930E9468D98DB78E
:1059B0009EB70C960FB6F8949EBF0FBE8DBF39CF21
:1059C00080910B06882399F210920B06F0920A063A
:1059D0001092060610920706109208061092090609
:1059E00007E612E328E730E050E040E066ED77E0BC
:1059F0008EEA92E10E940CC18091FE05882309F491
:105A0000B6CFDCCE8091FF05843019F1809145023C
:105A1000882309F40ECF1F929FEF9F931F921F922E
:105A20008BE598E09F938F935F924F92CF9381E0A5
:105A30009091FF05943009F080E08F930E9468D91F
:105A40008DB79EB70A960FB6F8949EBF0FBE8DBF56
:105A5000F0CE80910B068823C9F210920B06F092CB
:105A60000A06109206061092070610920806109277
:105A7000090610E000E02FEF30E050E040E06BE579
:105A800078E08AE992E10E940CC18091FE058823AA
:105A900009F4BCCF93CE8091FF05853031F1809120
:105AA0004502882309F4C5CE8DE196E19F938F933B
:105AB000EF927F921F926F928DE092E09F938F936F
:105AC0003F922F92CF9381E09091FF05953009F09E
:105AD00080E08F930E9468D98DB79EB70C960FB661
